:030000000209559D
:0C095500787FE4F6D8FD75810D020800E3
:1009190057454C434F4D450056495349544F522072
:0F092900434F554E54455200454E5452593A00D3
:100800007F381209611209387F1012096112093804
:100810007F101209611209387F0C12096112093820
:100820007BFF7A0979197D0712089D7FC012096143
:100830001209387BFF7A0979217D0F12089D120970
:10084000387F0112096112093820A01C7F8012092B
:10085000611209387D061208977F87120961120913
:10086000380508AF081208F720A1DED3E508940088
:100870007480948040D37F801209611209387D050D
:100880001208977F871209611209381508AF0812FC
:0708900008F712093880B2DD
:0C0961008F90C2B6D2B7120938C2B7227C
:0C096D008F90D2B6D2B7120938C2B72260
:060897007BFF7A097931B4
:08089D008B098A0A890B8D0CFE
:1008A500E4F50DE50DC3950C501AAB09AA0AA90B81
:1008B500850D827583001208CAFF12096D12093869
:0408C500050D80DFBE
:0108C900220C
:0208F700AE074A
:1008F900EE75F00A84FFEE75F00A8485F00974300C
:100909002FFF74302509F50912096DAF0902096D28
:10093800E4FFFE0FBF00010EBE03F8BFE8F5E4FFB9
:0C094800FE0FBF00010EBE04F8BFFBF55F
:010954002280
:1008CA00BB010CE58229F582E5833AF583E02250E3
:1008DA0006E92582F8E622BBFE06E92582F8E2222D
:0D08EA00E58229F582E5833AF583E4932247
:00000001FF
