:0308FB00010800F1
:1008C700E4FDFCC3ED9FEC9E5015E4FBFA0BBB0067
:0F08D700010ABA04F8BBFBF50DBD00010C80E46B
:0108E60022EF
:0808F300C2983098FDAF992274
:0C08E700759850758920758DFDD28E2209
:10088C001208E7D2907FE87E031208C7C290801D41
:10089C001208F38F08E508B43108D2907F0A7E0065
:1008AC00800BE508B4320BC2907F0A7E001208C799
:0B08BC0080DE7F647E001208C780D53C
:03000000020800F3
:0C080000787FE4F6D8FD758108020847F7
:10080C0002088CE493A3F8E493A34003F68001F26E
:10081C0008DFF48029E493A3F85407240CC8C333ED
:10082C00C4540F4420C8834004F456800146F6DFBC
:10083C00E4800B01020408102040809008FBE47E49
:10084C00019360BCA3FF543F30E509541FFEE493B1
:10085C00A360010ECF54C025E060A840B8E493A378
:10086C00FAE493A3F8E493A3C8C582C8CAC583CAA3
:10087C00F0A3C8C582C8CAC583CADFE9DEE780BE5B
:0108FE0000F9
:00000001FF
